{
  "_format": "hh-sol-artifact-1",
  "contractName": "NeuroCredStakingV2",
  "sourceName": "contracts/NeuroCredStakingV2.sol",
  "abi": [
    {
      "inputs": [],
      "stateMutability": "nonpayable",
      "type": "constructor"
    },
    {
      "inputs": [],
      "name": "AccessControlBadConfirmation",
      "type": "error"
    },
    {
      "inputs": [
        {
          "internalType": "address",
          "name": "account",
          "type": "address"
        },
        {
          "internalType": "bytes32",
          "name": "neededRole",
          "type": "bytes32"
        }
      ],
      "name": "AccessControlUnauthorizedAccount",
      "type": "error"
    },
    {
      "inputs": [
        {
          "internalType": "address",
          "name": "target",
          "type": "address"
        }
      ],
      "name": "AddressEmptyCode",
      "type": "error"
    },
    {
      "inputs": [
        {
          "internalType": "uint256",
          "name": "amount",
          "type": "uint256"
        },
        {
          "internalType": "uint256",
          "name": "limit",
          "type": "uint256"
        }
      ],
      "name": "AmountLimitExceeded",
      "type": "error"
    },
    {
      "inputs": [
        {
          "internalType": "address",
          "name": "implementation",
          "type": "address"
        }
      ],
      "name": "ERC1967InvalidImplementation",
      "type": "error"
    },
    {
      "inputs": [],
      "name": "ERC1967NonPayable",
      "type": "error"
    },
    {
      "inputs": [],
      "name": "EnforcedPause",
      "type": "error"
    },
    {
      "inputs": [],
      "name": "ExpectedPause",
      "type": "error"
    },
    {
      "inputs": [],
      "name": "FailedCall",
      "type": "error"
    },
    {
      "inputs": [
        {
          "internalType": "uint256",
          "name": "requested",
          "type": "uint256"
        },
        {
          "internalType": "uint256",
          "name": "available",
          "type": "uint256"
        }
      ],
      "name": "InsufficientStake",
      "type": "error"
    },
    {
      "inputs": [],
      "name": "InvalidAmount",
      "type": "error"
    },
    {
      "inputs": [],
      "name": "InvalidInitialization",
      "type": "error"
    },
    {
      "inputs": [],
      "name": "InvalidNCRDToken",
      "type": "error"
    },
    {
      "inputs": [],
      "name": "NotInitializing",
      "type": "error"
    },
    {
      "inputs": [
        {
          "internalType": "address",
          "name": "account",
          "type": "address"
        },
        {
          "internalType": "uint256",
          "name": "limit",
          "type": "uint256"
        },
        {
          "internalType": "uint256",
          "name": "current",
          "type": "uint256"
        }
      ],
      "name": "RateLimitExceeded",
      "type": "error"
    },
    {
      "inputs": [],
      "name": "UUPSUnauthorizedCallContext",
      "type": "error"
    },
    {
      "inputs": [
        {
          "internalType": "bytes32",
          "name": "slot",
          "type": "bytes32"
        }
      ],
      "name": "UUPSUnsupportedProxiableUUID",
      "type": "error"
    },
    {
      "anonymous": false,
      "inputs": [
        {
          "indexed": false,
          "internalType": "uint256",
          "name": "maxOperationsPerWindow",
          "type": "uint256"
        },
        {
          "indexed": false,
          "internalType": "uint256",
          "name": "timeWindow",
          "type": "uint256"
        },
        {
          "indexed": false,
          "internalType": "uint256",
          "name": "maxAmount",
          "type": "uint256"
        },
        {
          "indexed": false,
          "internalType": "bool",
          "name": "enabled",
          "type": "bool"
        }
      ],
      "name": "CircuitBreakerConfigUpdated",
      "type": "event"
    },
    {
      "anonymous": false,
      "inputs": [
        {
          "indexed": false,
          "internalType": "uint64",
          "name": "version",
          "type": "uint64"
        }
      ],
      "name": "Initialized",
      "type": "event"
    },
    {
      "anonymous": false,
      "inputs": [
        {
          "indexed": false,
          "internalType": "address",
          "name": "account",
          "type": "address"
        }
      ],
      "name": "Paused",
      "type": "event"
    },
    {
      "anonymous": false,
      "inputs": [
        {
          "indexed": true,
          "internalType": "bytes32",
          "name": "role",
          "type": "bytes32"
        },
        {
          "indexed": true,
          "internalType": "bytes32",
          "name": "previousAdminRole",
          "type": "bytes32"
        },
        {
          "indexed": true,
          "internalType": "bytes32",
          "name": "newAdminRole",
          "type": "bytes32"
        }
      ],
      "name": "RoleAdminChanged",
      "type": "event"
    },
    {
      "anonymous": false,
      "inputs": [
        {
          "indexed": true,
          "internalType": "bytes32",
          "name": "role",
          "type": "bytes32"
        },
        {
          "indexed": true,
          "internalType": "address",
          "name": "account",
          "type": "address"
        },
        {
          "indexed": true,
          "internalType": "address",
          "name": "sender",
          "type": "address"
        }
      ],
      "name": "RoleGranted",
      "type": "event"
    },
    {
      "anonymous": false,
      "inputs": [
        {
          "indexed": true,
          "internalType": "bytes32",
          "name": "role",
          "type": "bytes32"
        },
        {
          "indexed": true,
          "internalType": "address",
          "name": "account",
          "type": "address"
        },
        {
          "indexed": true,
          "internalType": "address",
          "name": "sender",
          "type": "address"
        }
      ],
      "name": "RoleRevoked",
      "type": "event"
    },
    {
      "anonymous": false,
      "inputs": [
        {
          "indexed": true,
          "internalType": "address",
          "name": "staker",
          "type": "address"
        },
        {
          "indexed": false,
          "internalType": "uint256",
          "name": "amount",
          "type": "uint256"
        },
        {
          "indexed": false,
          "internalType": "uint256",
          "name": "totalStaked",
          "type": "uint256"
        },
        {
          "indexed": false,
          "internalType": "uint256",
          "name": "timestamp",
          "type": "uint256"
        },
        {
          "indexed": false,
          "internalType": "uint256",
          "name": "blockNumber",
          "type": "uint256"
        }
      ],
      "name": "Staked",
      "type": "event"
    },
    {
      "anonymous": false,
      "inputs": [
        {
          "indexed": false,
          "internalType": "address",
          "name": "account",
          "type": "address"
        }
      ],
      "name": "Unpaused",
      "type": "event"
    },
    {
      "anonymous": false,
      "inputs": [
        {
          "indexed": true,
          "internalType": "address",
          "name": "staker",
          "type": "address"
        },
        {
          "indexed": false,
          "internalType": "uint256",
          "name": "amount",
          "type": "uint256"
        },
        {
          "indexed": false,
          "internalType": "uint256",
          "name": "remainingStaked",
          "type": "uint256"
        },
        {
          "indexed": false,
          "internalType": "uint256",
          "name": "timestamp",
          "type": "uint256"
        },
        {
          "indexed": false,
          "internalType": "uint256",
          "name": "blockNumber",
          "type": "uint256"
        }
      ],
      "name": "Unstaked",
      "type": "event"
    },
    {
      "anonymous": false,
      "inputs": [
        {
          "indexed": true,
          "internalType": "address",
          "name": "implementation",
          "type": "address"
        }
      ],
      "name": "Upgraded",
      "type": "event"
    },
    {
      "inputs": [],
      "name": "CIRCUIT_BREAKER_ROLE",
      "outputs": [
        {
          "internalType": "bytes32",
          "name": "",
          "type": "bytes32"
        }
      ],
      "stateMutability": "view",
      "type": "function"
    },
    {
      "inputs": [],
      "name": "DEFAULT_ADMIN_ROLE",
      "outputs": [
        {
          "internalType": "bytes32",
          "name": "",
          "type": "bytes32"
        }
      ],
      "stateMutability": "view",
      "type": "function"
    },
    {
      "inputs": [],
      "name": "PAUSER_ROLE",
      "outputs": [
        {
          "internalType": "bytes32",
          "name": "",
          "type": "bytes32"
        }
      ],
      "stateMutability": "view",
      "type": "function"
    },
    {
      "inputs": [],
      "name": "STAKING_ADMIN_ROLE",
      "outputs": [
        {
          "internalType": "bytes32",
          "name": "",
          "type": "bytes32"
        }
      ],
      "stateMutability": "view",
      "type": "function"
    },
    {
      "inputs": [],
      "name": "UPGRADER_ROLE",
      "outputs": [
        {
          "internalType": "bytes32",
          "name": "",
          "type": "bytes32"
        }
      ],
      "stateMutability": "view",
      "type": "function"
    },
    {
      "inputs": [],
      "name": "UPGRADE_INTERFACE_VERSION",
      "outputs": [
        {
          "internalType": "string",
          "name": "",
          "type": "string"
        }
      ],
      "stateMutability": "view",
      "type": "function"
    },
    {
      "inputs": [],
      "name": "circuitBreakerConfig",
      "outputs": [
        {
          "internalType": "uint256",
          "name": "maxOperationsPerWindow",
          "type": "uint256"
        },
        {
          "internalType": "uint256",
          "name": "timeWindow",
          "type": "uint256"
        },
        {
          "internalType": "uint256",
          "name": "maxAmount",
          "type": "uint256"
        },
        {
          "internalType": "bool",
          "name": "enabled",
          "type": "bool"
        }
      ],
      "stateMutability": "view",
      "type": "function"
    },
    {
      "inputs": [
        {
          "internalType": "bytes32",
          "name": "role",
          "type": "bytes32"
        }
      ],
      "name": "getRoleAdmin",
      "outputs": [
        {
          "internalType": "bytes32",
          "name": "",
          "type": "bytes32"
        }
      ],
      "stateMutability": "view",
      "type": "function"
    },
    {
      "inputs": [
        {
          "internalType": "bytes32",
          "name": "role",
          "type": "bytes32"
        },
        {
          "internalType": "address",
          "name": "account",
          "type": "address"
        }
      ],
      "name": "grantRole",
      "outputs": [],
      "stateMutability": "nonpayable",
      "type": "function"
    },
    {
      "inputs": [
        {
          "internalType": "bytes32",
          "name": "role",
          "type": "bytes32"
        },
        {
          "internalType": "address",
          "name": "account",
          "type": "address"
        }
      ],
      "name": "hasRole",
      "outputs": [
        {
          "internalType": "bool",
          "name": "",
          "type": "bool"
        }
      ],
      "stateMutability": "view",
      "type": "function"
    },
    {
      "inputs": [
        {
          "internalType": "address",
          "name": "ncrdToken",
          "type": "address"
        },
        {
          "internalType": "address",
          "name": "admin",
          "type": "address"
        }
      ],
      "name": "initialize",
      "outputs": [],
      "stateMutability": "nonpayable",
      "type": "function"
    },
    {
      "inputs": [
        {
          "internalType": "address",
          "name": "staker",
          "type": "address"
        }
      ],
      "name": "integrationTier",
      "outputs": [
        {
          "internalType": "uint8",
          "name": "",
          "type": "uint8"
        }
      ],
      "stateMutability": "view",
      "type": "function"
    },
    {
      "inputs": [],
      "name": "ncrd",
      "outputs": [
        {
          "internalType": "contract IERC20",
          "name": "",
          "type": "address"
        }
      ],
      "stateMutability": "view",
      "type": "function"
    },
    {
      "inputs": [],
      "name": "pause",
      "outputs": [],
      "stateMutability": "nonpayable",
      "type": "function"
    },
    {
      "inputs": [],
      "name": "paused",
      "outputs": [
        {
          "internalType": "bool",
          "name": "",
          "type": "bool"
        }
      ],
      "stateMutability": "view",
      "type": "function"
    },
    {
      "inputs": [],
      "name": "proxiableUUID",
      "outputs": [
        {
          "internalType": "bytes32",
          "name": "",
          "type": "bytes32"
        }
      ],
      "stateMutability": "view",
      "type": "function"
    },
    {
      "inputs": [
        {
          "internalType": "bytes32",
          "name": "role",
          "type": "bytes32"
        },
        {
          "internalType": "address",
          "name": "callerConfirmation",
          "type": "address"
        }
      ],
      "name": "renounceRole",
      "outputs": [],
      "stateMutability": "nonpayable",
      "type": "function"
    },
    {
      "inputs": [
        {
          "internalType": "bytes32",
          "name": "role",
          "type": "bytes32"
        },
        {
          "internalType": "address",
          "name": "account",
          "type": "address"
        }
      ],
      "name": "revokeRole",
      "outputs": [],
      "stateMutability": "nonpayable",
      "type": "function"
    },
    {
      "inputs": [
        {
          "internalType": "uint256",
          "name": "maxOperationsPerWindow",
          "type": "uint256"
        },
        {
          "internalType": "uint256",
          "name": "timeWindow",
          "type": "uint256"
        },
        {
          "internalType": "uint256",
          "name": "maxAmount",
          "type": "uint256"
        },
        {
          "internalType": "bool",
          "name": "enabled",
          "type": "bool"
        }
      ],
      "name": "setCircuitBreakerConfig",
      "outputs": [],
      "stateMutability": "nonpayable",
      "type": "function"
    },
    {
      "inputs": [
        {
          "internalType": "uint256",
          "name": "amount",
          "type": "uint256"
        }
      ],
      "name": "stake",
      "outputs": [],
      "stateMutability": "nonpayable",
      "type": "function"
    },
    {
      "inputs": [
        {
          "internalType": "address",
          "name": "user",
          "type": "address"
        }
      ],
      "name": "stakedAmount",
      "outputs": [
        {
          "internalType": "uint256",
          "name": "",
          "type": "uint256"
        }
      ],
      "stateMutability": "view",
      "type": "function"
    },
    {
      "inputs": [
        {
          "internalType": "address",
          "name": "",
          "type": "address"
        }
      ],
      "name": "stakes",
      "outputs": [
        {
          "internalType": "uint128",
          "name": "amount",
          "type": "uint128"
        },
        {
          "internalType": "uint64",
          "name": "lastUpdated",
          "type": "uint64"
        }
      ],
      "stateMutability": "view",
      "type": "function"
    },
    {
      "inputs": [
        {
          "internalType": "bytes4",
          "name": "interfaceId",
          "type": "bytes4"
        }
      ],
      "name": "supportsInterface",
      "outputs": [
        {
          "internalType": "bool",
          "name": "",
          "type": "bool"
        }
      ],
      "stateMutability": "view",
      "type": "function"
    },
    {
      "inputs": [],
      "name": "unpause",
      "outputs": [],
      "stateMutability": "nonpayable",
      "type": "function"
    },
    {
      "inputs": [
        {
          "internalType": "uint256",
          "name": "amount",
          "type": "uint256"
        }
      ],
      "name": "unstake",
      "outputs": [],
      "stateMutability": "nonpayable",
      "type": "function"
    },
    {
      "inputs": [
        {
          "internalType": "address",
          "name": "newImplementation",
          "type": "address"
        },
        {
          "internalType": "bytes",
          "name": "data",
          "type": "bytes"
        }
      ],
      "name": "upgradeToAndCall",
      "outputs": [],
      "stateMutability": "payable",
      "type": "function"
    }
  ],
  "bytecode": "0x60a06040523060805234801561001457600080fd5b5061001d610022565b6100d4565b7ff0c57e16840df040f15088dc2f81fe391c3923bec73e23a9662efc9c229c6a00805468010000000000000000900460ff16156100725760405163f92ee8a960e01b815260040160405180910390fd5b80546001600160401b03908116146100d15780546001600160401b0319166001600160401b0390811782556040519081527fc7f505b2f371ae2175ee4913f4499e1f2633a7b5936321eed1cdaeb6115181d29060200160405180910390a15b50565b6080516119386100fd60003960008181611091015281816110ba015261121d01526119386000f3fe6080604052600436106101815760003560e01c806367f502f4116100d1578063ad3cb1cc1161008a578063e54e55ae11610064578063e54e55ae1461050c578063e63ab1e914610540578063f72c0d8b14610574578063f9931855146105a857600080fd5b8063ad3cb1cc14610466578063d547741f146104a4578063dd89acf3146104c457600080fd5b806367f502f4146103a45780638456cb59146103c457806391d14854146103d95780639360258e146103f9578063a217fddf14610431578063a694fc3a1461044657600080fd5b80632f2ff15d1161013e578063485cc95511610118578063485cc955146103375780634f1ef2861461035757806352d1902d1461036a5780635c975abb1461037f57600080fd5b80632f2ff15d146102e257806336568abe146103025780633f4ba83a1461032257600080fd5b806301ffc9a71461018657806304f67aa1146101bb57806316934fc4146101fd578063248a9ca31461026e5780632884e6c91461028e5780632e17de78146102c0575b600080fd5b34801561019257600080fd5b506101a66101a136600461158b565b6105e7565b60405190151581526020015b60405180910390f35b3480156101c757600080fd5b506101ef7f24791c44c040514a5d2580696fc45e7d3cb6c9fa65bf3db2e4755362d6c155b581565b6040519081526020016101b2565b34801561020957600080fd5b506102466102183660046115d1565b6001602052600090815260409020546001600160801b03811690600160801b900467ffffffffffffffff1682565b604080516001600160801b03909316835267ffffffffffffffff9091166020830152016101b2565b34801561027a57600080fd5b506101ef6102893660046115ec565b61061e565b34801561029a57600080fd5b506102ae6102a93660046115d1565b610640565b60405160ff90911681526020016101b2565b3480156102cc57600080fd5b506102e06102db3660046115ec565b6106b7565b005b3480156102ee57600080fd5b506102e06102fd366004611605565b61085f565b34801561030e57600080fd5b506102e061031d366004611605565b610881565b34801561032e57600080fd5b506102e06108b9565b34801561034357600080fd5b506102e0610352366004611631565b6108ee565b6102e0610365366004611671565b610a97565b34801561037657600080fd5b506101ef610ab6565b34801561038b57600080fd5b506000805160206118e38339815191525460ff166101a6565b3480156103b057600080fd5b506102e06103bf366004611741565b610ad3565b3480156103d057600080fd5b506102e0610b89565b3480156103e557600080fd5b506101a66103f4366004611605565b610bbb565b34801561040557600080fd5b50600054610419906001600160a01b031681565b6040516001600160a01b0390911681526020016101b2565b34801561043d57600080fd5b506101ef600081565b34801561045257600080fd5b506102e06104613660046115ec565b610bf3565b34801561047257600080fd5b50610497604051806040016040528060058152602001640352e302e360dc1b81525081565b6040516101b291906117a6565b3480156104b057600080fd5b506102e06104bf366004611605565b610dd2565b3480156104d057600080fd5b506003546004546005546006546104ea9392919060ff1684565b60408051948552602085019390935291830152151560608201526080016101b2565b34801561051857600080fd5b506101ef7f7e6b58bc1470e1fc07bc9b21e0435be41fdc30ede9591781476a8d169a26549281565b34801561054c57600080fd5b506101ef7f65d7a28e3265b37a6474929f336521b332c1681b933f6cb9f3376673440d862a81565b34801561058057600080fd5b506101ef7f189ab7a9244df0848122154315af71fe140f3db0fe014031783b0946b8c9d2e381565b3480156105b457600080fd5b506101ef6105c33660046115d1565b6001600160a01b03166000908152600160205260409020546001600160801b031690565b60006001600160e01b03198216637965db0b60e01b148061061857506301ffc9a760e01b6001600160e01b03198316145b92915050565b60009081526000805160206118c3833981519152602052604090206001015490565b6001600160a01b0381166000908152600160205260408120546001600160801b031669021e19e0c9bab2400000811061067c5750600392915050565b686c6b935b8bbd40000081106106955750600292915050565b681b1ae4d6e2ef50000081106106ae5750600192915050565b50600092915050565b6106bf610dee565b33600090815260016020526040902080546001600160801b03168215806106e557508083115b15610712576040516322df051360e11b815260048101849052602481018290526044015b60405180910390fd5b60065460ff16156107585760408051608081018252600354815260045460208201526005549181019190915260065460ff16151560608201526107589060029033610e21565b61076283826117ef565b82546001600160801b03919091166001600160c01b031990911617600160801b4267ffffffffffffffff160217825560005460405163a9059cbb60e01b8152336004820152602481018590526001600160a01b039091169063a9059cbb906044016020604051808303816000875af11580156107e2573d6000803e3d6000fd5b505050506040513d601f19601f820116820180604052508101906108069190611802565b50337fdcfd2b4017d03f7e541021db793b2f9b31e4acdee005f789e52853c390e3e9628461083481856117ef565b60408051928352602083019190915242908201524360608201526080015b60405180910390a2505050565b6108688261061e565b61087181610eca565b61087b8383610ed4565b50505050565b6001600160a01b03811633146108aa5760405163334bd91960e11b815260040160405180910390fd5b6108b48282610f79565b505050565b7f65d7a28e3265b37a6474929f336521b332c1681b933f6cb9f3376673440d862a6108e381610eca565b6108eb610ff5565b50565b60006108f8611055565b805490915060ff600160401b820416159067ffffffffffffffff166000811580156109205750825b905060008267ffffffffffffffff16600114801561093d5750303b155b90508115801561094b575080155b156109695760405163f92ee8a960e01b815260040160405180910390fd5b845467ffffffffffffffff19166001178555831561099357845460ff60401b1916600160401b1785555b61099b61107e565b6109a361107e565b6109ab61107e565b6001600160a01b0387166109d25760405163288e3e5960e01b815260040160405180910390fd5b600080546001600160a01b0319166001600160a01b0389161781556109f79087610ed4565b50604080516080810182526014808252610e106020830181905269d3c21bcecceda1000000938301849052600160609093018390526003919091556004556005919091556006805460ff191690911790558315610a8e57845460ff60401b19168555604051600181527fc7f505b2f371ae2175ee4913f4499e1f2633a7b5936321eed1cdaeb6115181d29060200160405180910390a15b50505050505050565b610a9f611086565b610aa88261112b565b610ab28282611155565b5050565b6000610ac0611212565b506000805160206118a383398151915290565b7f7e6b58bc1470e1fc07bc9b21e0435be41fdc30ede9591781476a8d169a265492610afd81610eca565b60408051608080820183528782526020808301889052828401879052851515606093840181905260038a9055600489905560058890556006805460ff19168217905584518a8152918201899052938101879052918201929092527fe6f9effa54bcd2ca57f5dde02216c166fc2943a89d3da5e26725acae3d7020aa910160405180910390a15050505050565b7f65d7a28e3265b37a6474929f336521b332c1681b933f6cb9f3376673440d862a610bb381610eca565b6108eb61125b565b60009182526000805160206118c3833981519152602090815260408084206001600160a01b0393909316845291905290205460ff1690565b610bfb610dee565b80600003610c1c5760405163162908e360e11b815260040160405180910390fd5b60065460ff1615610c635760408051608081018252600354815260045460208201526005549181019190915260065460ff1615156060820152610c639060029033846112a4565b6000546040516323b872dd60e01b8152336004820152306024820152604481018390526001600160a01b03909116906323b872dd906064016020604051808303816000875af1158015610cba573d6000803e3d6000fd5b505050506040513d601f19601f82011682018060405250810190610cde9190611802565b503360009081526001602052604081208054909190610d079084906001600160801b031661181f565b90506001600160801b03811115610d595760405162461bcd60e51b81526020600482015260166024820152755374616b6520616d6f756e7420746f6f206c6172676560501b6044820152606401610709565b815467ffffffffffffffff42908116600160801b026001600160c01b03199092166001600160801b0384161791909117835560408051858152602081018490529081019190915243606082015233907f9cfd25589d1eb8ad71e342a86a8524e83522e3936c0803048c08f6d9ad974f4090608001610852565b610ddb8261061e565b610de481610eca565b61087b8383610f79565b6000805160206118e38339815191525460ff1615610e1f5760405163d93c066560e01b815260040160405180910390fd5b565b8160600151610e2f57505050565b6001600160a01b038116600090815260208481526040822090840151909190610e589042611832565b905080826001015414610e715760018201819055600082555b8154826000610e7f83611854565b9091555050835182541115610ec357835182546040516310a7b17960e31b81526001600160a01b038616600482015260248101929092526044820152606401610709565b5050505050565b6108eb81336112b9565b60006000805160206118c3833981519152610eef8484610bbb565b610f6f576000848152602082815260408083206001600160a01b03871684529091529020805460ff19166001179055610f253390565b6001600160a01b0316836001600160a01b0316857f2f8788117e7eff1d82e926ec794901d17c78024a50270940304540a733656f0d60405160405180910390a46001915050610618565b6000915050610618565b60006000805160206118c3833981519152610f948484610bbb565b15610f6f576000848152602082815260408083206001600160a01b0387168085529252808320805460ff1916905551339287917ff6391f5c32d9c69d2a47ea670b442974b53935d1edc7fd64eb21e047a839171b9190a46001915050610618565b610ffd6112f2565b6000805160206118e3833981519152805460ff191681557f5db9ee0a495bf2e6ff9c91a7834c1ba4fdd244a5e8aa4e537bd38aeae4b073aa335b6040516001600160a01b03909116815260200160405180910390a150565b6000807ff0c57e16840df040f15088dc2f81fe391c3923bec73e23a9662efc9c229c6a00610618565b610e1f611322565b306001600160a01b037f000000000000000000000000000000000000000000000000000000000000000016148061110d57507f00000000000000000000000000000000000000000000000000000000000000006001600160a01b03166111016000805160206118a3833981519152546001600160a01b031690565b6001600160a01b031614155b15610e1f5760405163703e46dd60e11b815260040160405180910390fd5b7f189ab7a9244df0848122154315af71fe140f3db0fe014031783b0946b8c9d2e3610ab281610eca565b816001600160a01b03166352d1902d6040518163ffffffff1660e01b8152600401602060405180830381865afa9250505080156111af575060408051601f3d908101601f191682019092526111ac9181019061186d565b60015b6111d757604051634c9c8ce360e01b81526001600160a01b0383166004820152602401610709565b6000805160206118a3833981519152811461120857604051632a87526960e21b815260048101829052602401610709565b6108b48383611347565b306001600160a01b037f00000000000000000000000000000000000000000000000000000000000000001614610e1f5760405163703e46dd60e11b815260040160405180910390fd5b611263610dee565b6000805160206118e3833981519152805460ff191660011781557f62e78cea01bee320cd4e420270b5ea74000d11b0c9f74754ebdbfc544b05a25833611037565b6112af848484610e21565b61087b838261139d565b6112c38282610bbb565b610ab25760405163e2517d3f60e01b81526001600160a01b038216600482015260248101839052604401610709565b6000805160206118e38339815191525460ff16610e1f57604051638dfc202b60e01b815260040160405180910390fd5b61132a6113f0565b610e1f57604051631afcd79f60e31b815260040160405180910390fd5b6113508261140a565b6040516001600160a01b038316907fbc7cd75a20ee27fd9adebab32041f755214dbc6bffa90cc0225b39da2e5c2d3b90600090a2805115611395576108b4828261146f565b610ab26114e5565b81606001516113aa575050565b600082604001511180156113c15750816040015181115b15610ab2578082604001516040516397121c2160e01b8152600401610709929190918252602082015260400190565b60006113fa611055565b54600160401b900460ff16919050565b806001600160a01b03163b60000361144057604051634c9c8ce360e01b81526001600160a01b0382166004820152602401610709565b6000805160206118a383398151915280546001600160a01b0319166001600160a01b0392909216919091179055565b6060600080846001600160a01b03168460405161148c9190611886565b600060405180830381855af49150503d80600081146114c7576040519150601f19603f3d011682016040523d82523d6000602084013e6114cc565b606091505b50915091506114dc858383611504565b95945050505050565b3415610e1f5760405163b398979f60e01b815260040160405180910390fd5b6060826115195761151482611563565b61155c565b815115801561153057506001600160a01b0384163b155b1561155957604051639996b31560e01b81526001600160a01b0385166004820152602401610709565b50805b9392505050565b80511561157257805160208201fd5b60405163d6bda27560e01b815260040160405180910390fd5b60006020828403121561159d57600080fd5b81356001600160e01b03198116811461155c57600080fd5b80356001600160a01b03811681146115cc57600080fd5b919050565b6000602082840312156115e357600080fd5b61155c826115b5565b6000602082840312156115fe57600080fd5b5035919050565b6000806040838503121561161857600080fd5b82359150611628602084016115b5565b90509250929050565b6000806040838503121561164457600080fd5b61164d836115b5565b9150611628602084016115b5565b634e487b7160e01b600052604160045260246000fd5b6000806040838503121561168457600080fd5b61168d836115b5565b9150602083013567ffffffffffffffff808211156116aa57600080fd5b818501915085601f8301126116be57600080fd5b8135818111156116d0576116d061165b565b604051601f8201601f19908116603f011681019083821181831017156116f8576116f861165b565b8160405282815288602084870101111561171157600080fd5b8260208601602083013760006020848301015280955050505050509250929050565b80151581146108eb57600080fd5b6000806000806080858703121561175757600080fd5b843593506020850135925060408501359150606085013561177781611733565b939692955090935050565b60005b8381101561179d578181015183820152602001611785565b50506000910152565b60208152600082518060208401526117c5816040850160208701611782565b601f01601f19169190910160400192915050565b634e487b7160e01b600052601160045260246000fd5b81810381811115610618576106186117d9565b60006020828403121561181457600080fd5b815161155c81611733565b80820180821115610618576106186117d9565b60008261184f57634e487b7160e01b600052601260045260246000fd5b500490565b600060018201611866576118666117d9565b5060010190565b60006020828403121561187f57600080fd5b5051919050565b60008251611898818460208701611782565b919091019291505056fe360894a13ba1a3210667c828492db98dca3e2076cc3735a920a3ca505d382bbc02dd7bc7dec4dceedda775e58dd541e08a116c6c53815c0bd028192f7b626800cd5ed15c6e187e77e9aee88184c21f4f2182ab5827cb3b7e07fbedcd63f03300a26469706673582212208e76506da9a8af34372e8dba356b12079361fdcb4e1204b1405fa3bcdfd9da6364736f6c63430008160033",
  "linkReferences": {},
  "deployedLinkReferences": {}
}