{
  "_format": "hh-sol-artifact-1",
  "contractName": "CreditPassportNFT",
  "sourceName": "contracts/CreditPassportNFT.sol",
  "abi": [
    {
      "inputs": [
        {
          "internalType": "address",
          "name": "admin",
          "type": "address"
        }
      ],
      "stateMutability": "nonpayable",
      "type": "constructor"
    },
    {
      "inputs": [],
      "name": "AccessControlBadConfirmation",
      "type": "error"
    },
    {
      "inputs": [
        {
          "internalType": "address",
          "name": "account",
          "type": "address"
        },
        {
          "internalType": "bytes32",
          "name": "neededRole",
          "type": "bytes32"
        }
      ],
      "name": "AccessControlUnauthorizedAccount",
      "type": "error"
    },
    {
      "inputs": [
        {
          "internalType": "address",
          "name": "sender",
          "type": "address"
        },
        {
          "internalType": "uint256",
          "name": "tokenId",
          "type": "uint256"
        },
        {
          "internalType": "address",
          "name": "owner",
          "type": "address"
        }
      ],
      "name": "ERC721IncorrectOwner",
      "type": "error"
    },
    {
      "inputs": [
        {
          "internalType": "address",
          "name": "operator",
          "type": "address"
        },
        {
          "internalType": "uint256",
          "name": "tokenId",
          "type": "uint256"
        }
      ],
      "name": "ERC721InsufficientApproval",
      "type": "error"
    },
    {
      "inputs": [
        {
          "internalType": "address",
          "name": "approver",
          "type": "address"
        }
      ],
      "name": "ERC721InvalidApprover",
      "type": "error"
    },
    {
      "inputs": [
        {
          "internalType": "address",
          "name": "operator",
          "type": "address"
        }
      ],
      "name": "ERC721InvalidOperator",
      "type": "error"
    },
    {
      "inputs": [
        {
          "internalType": "address",
          "name": "owner",
          "type": "address"
        }
      ],
      "name": "ERC721InvalidOwner",
      "type": "error"
    },
    {
      "inputs": [
        {
          "internalType": "address",
          "name": "receiver",
          "type": "address"
        }
      ],
      "name": "ERC721InvalidReceiver",
      "type": "error"
    },
    {
      "inputs": [
        {
          "internalType": "address",
          "name": "sender",
          "type": "address"
        }
      ],
      "name": "ERC721InvalidSender",
      "type": "error"
    },
    {
      "inputs": [
        {
          "internalType": "uint256",
          "name": "tokenId",
          "type": "uint256"
        }
      ],
      "name": "ERC721NonexistentToken",
      "type": "error"
    },
    {
      "anonymous": false,
      "inputs": [
        {
          "indexed": true,
          "internalType": "address",
          "name": "owner",
          "type": "address"
        },
        {
          "indexed": true,
          "internalType": "address",
          "name": "approved",
          "type": "address"
        },
        {
          "indexed": true,
          "internalType": "uint256",
          "name": "tokenId",
          "type": "uint256"
        }
      ],
      "name": "Approval",
      "type": "event"
    },
    {
      "anonymous": false,
      "inputs": [
        {
          "indexed": true,
          "internalType": "address",
          "name": "owner",
          "type": "address"
        },
        {
          "indexed": true,
          "internalType": "address",
          "name": "operator",
          "type": "address"
        },
        {
          "indexed": false,
          "internalType": "bool",
          "name": "approved",
          "type": "bool"
        }
      ],
      "name": "ApprovalForAll",
      "type": "event"
    },
    {
      "anonymous": false,
      "inputs": [
        {
          "indexed": true,
          "internalType": "address",
          "name": "user",
          "type": "address"
        },
        {
          "indexed": true,
          "internalType": "uint256",
          "name": "tokenId",
          "type": "uint256"
        }
      ],
      "name": "PassportMinted",
      "type": "event"
    },
    {
      "anonymous": false,
      "inputs": [
        {
          "indexed": true,
          "internalType": "bytes32",
          "name": "role",
          "type": "bytes32"
        },
        {
          "indexed": true,
          "internalType": "bytes32",
          "name": "previousAdminRole",
          "type": "bytes32"
        },
        {
          "indexed": true,
          "internalType": "bytes32",
          "name": "newAdminRole",
          "type": "bytes32"
        }
      ],
      "name": "RoleAdminChanged",
      "type": "event"
    },
    {
      "anonymous": false,
      "inputs": [
        {
          "indexed": true,
          "internalType": "bytes32",
          "name": "role",
          "type": "bytes32"
        },
        {
          "indexed": true,
          "internalType": "address",
          "name": "account",
          "type": "address"
        },
        {
          "indexed": true,
          "internalType": "address",
          "name": "sender",
          "type": "address"
        }
      ],
      "name": "RoleGranted",
      "type": "event"
    },
    {
      "anonymous": false,
      "inputs": [
        {
          "indexed": true,
          "internalType": "bytes32",
          "name": "role",
          "type": "bytes32"
        },
        {
          "indexed": true,
          "internalType": "address",
          "name": "account",
          "type": "address"
        },
        {
          "indexed": true,
          "internalType": "address",
          "name": "sender",
          "type": "address"
        }
      ],
      "name": "RoleRevoked",
      "type": "event"
    },
    {
      "anonymous": false,
      "inputs": [
        {
          "indexed": true,
          "internalType": "address",
          "name": "user",
          "type": "address"
        },
        {
          "indexed": true,
          "internalType": "uint256",
          "name": "tokenId",
          "type": "uint256"
        },
        {
          "indexed": false,
          "internalType": "uint16",
          "name": "score",
          "type": "uint16"
        },
        {
          "indexed": false,
          "internalType": "uint8",
          "name": "riskBand",
          "type": "uint8"
        },
        {
          "indexed": false,
          "internalType": "uint64",
          "name": "timestamp",
          "type": "uint64"
        }
      ],
      "name": "ScoreUpdated",
      "type": "event"
    },
    {
      "anonymous": false,
      "inputs": [
        {
          "indexed": true,
          "internalType": "address",
          "name": "from",
          "type": "address"
        },
        {
          "indexed": true,
          "internalType": "address",
          "name": "to",
          "type": "address"
        },
        {
          "indexed": true,
          "internalType": "uint256",
          "name": "tokenId",
          "type": "uint256"
        }
      ],
      "name": "Transfer",
      "type": "event"
    },
    {
      "inputs": [],
      "name": "DEFAULT_ADMIN_ROLE",
      "outputs": [
        {
          "internalType": "bytes32",
          "name": "",
          "type": "bytes32"
        }
      ],
      "stateMutability": "view",
      "type": "function"
    },
    {
      "inputs": [],
      "name": "SCORE_UPDATER_ROLE",
      "outputs": [
        {
          "internalType": "bytes32",
          "name": "",
          "type": "bytes32"
        }
      ],
      "stateMutability": "view",
      "type": "function"
    },
    {
      "inputs": [
        {
          "internalType": "address",
          "name": "user",
          "type": "address"
        }
      ],
      "name": "adminBurn",
      "outputs": [],
      "stateMutability": "nonpayable",
      "type": "function"
    },
    {
      "inputs": [
        {
          "internalType": "address",
          "name": "to",
          "type": "address"
        },
        {
          "internalType": "uint256",
          "name": "tokenId",
          "type": "uint256"
        }
      ],
      "name": "approve",
      "outputs": [],
      "stateMutability": "nonpayable",
      "type": "function"
    },
    {
      "inputs": [
        {
          "internalType": "address",
          "name": "owner",
          "type": "address"
        }
      ],
      "name": "balanceOf",
      "outputs": [
        {
          "internalType": "uint256",
          "name": "",
          "type": "uint256"
        }
      ],
      "stateMutability": "view",
      "type": "function"
    },
    {
      "inputs": [
        {
          "internalType": "uint256",
          "name": "tokenId",
          "type": "uint256"
        }
      ],
      "name": "getApproved",
      "outputs": [
        {
          "internalType": "address",
          "name": "",
          "type": "address"
        }
      ],
      "stateMutability": "view",
      "type": "function"
    },
    {
      "inputs": [
        {
          "internalType": "bytes32",
          "name": "role",
          "type": "bytes32"
        }
      ],
      "name": "getRoleAdmin",
      "outputs": [
        {
          "internalType": "bytes32",
          "name": "",
          "type": "bytes32"
        }
      ],
      "stateMutability": "view",
      "type": "function"
    },
    {
      "inputs": [
        {
          "internalType": "address",
          "name": "user",
          "type": "address"
        }
      ],
      "name": "getScore",
      "outputs": [
        {
          "components": [
            {
              "internalType": "uint16",
              "name": "score",
              "type": "uint16"
            },
            {
              "internalType": "uint8",
              "name": "riskBand",
              "type": "uint8"
            },
            {
              "internalType": "uint64",
              "name": "lastUpdated",
              "type": "uint64"
            }
          ],
          "internalType": "struct INeuroCredScore.ScoreView",
          "name": "",
          "type": "tuple"
        }
      ],
      "stateMutability": "view",
      "type": "function"
    },
    {
      "inputs": [
        {
          "internalType": "uint256",
          "name": "tokenId",
          "type": "uint256"
        }
      ],
      "name": "getScoreByToken",
      "outputs": [
        {
          "components": [
            {
              "internalType": "uint16",
              "name": "score",
              "type": "uint16"
            },
            {
              "internalType": "uint8",
              "name": "riskBand",
              "type": "uint8"
            },
            {
              "internalType": "uint64",
              "name": "lastUpdated",
              "type": "uint64"
            }
          ],
          "internalType": "struct CreditPassportNFT.ScoreData",
          "name": "",
          "type": "tuple"
        }
      ],
      "stateMutability": "view",
      "type": "function"
    },
    {
      "inputs": [
        {
          "internalType": "bytes32",
          "name": "role",
          "type": "bytes32"
        },
        {
          "internalType": "address",
          "name": "account",
          "type": "address"
        }
      ],
      "name": "grantRole",
      "outputs": [],
      "stateMutability": "nonpayable",
      "type": "function"
    },
    {
      "inputs": [
        {
          "internalType": "bytes32",
          "name": "role",
          "type": "bytes32"
        },
        {
          "internalType": "address",
          "name": "account",
          "type": "address"
        }
      ],
      "name": "hasRole",
      "outputs": [
        {
          "internalType": "bool",
          "name": "",
          "type": "bool"
        }
      ],
      "stateMutability": "view",
      "type": "function"
    },
    {
      "inputs": [
        {
          "internalType": "address",
          "name": "owner",
          "type": "address"
        },
        {
          "internalType": "address",
          "name": "operator",
          "type": "address"
        }
      ],
      "name": "isApprovedForAll",
      "outputs": [
        {
          "internalType": "bool",
          "name": "",
          "type": "bool"
        }
      ],
      "stateMutability": "view",
      "type": "function"
    },
    {
      "inputs": [
        {
          "internalType": "address",
          "name": "user",
          "type": "address"
        },
        {
          "internalType": "uint16",
          "name": "score",
          "type": "uint16"
        },
        {
          "internalType": "uint8",
          "name": "riskBand",
          "type": "uint8"
        }
      ],
      "name": "mintOrUpdate",
      "outputs": [],
      "stateMutability": "nonpayable",
      "type": "function"
    },
    {
      "inputs": [],
      "name": "name",
      "outputs": [
        {
          "internalType": "string",
          "name": "",
          "type": "string"
        }
      ],
      "stateMutability": "view",
      "type": "function"
    },
    {
      "inputs": [
        {
          "internalType": "uint256",
          "name": "tokenId",
          "type": "uint256"
        }
      ],
      "name": "ownerOf",
      "outputs": [
        {
          "internalType": "address",
          "name": "",
          "type": "address"
        }
      ],
      "stateMutability": "view",
      "type": "function"
    },
    {
      "inputs": [
        {
          "internalType": "address",
          "name": "user",
          "type": "address"
        }
      ],
      "name": "passportIdOf",
      "outputs": [
        {
          "internalType": "uint256",
          "name": "",
          "type": "uint256"
        }
      ],
      "stateMutability": "view",
      "type": "function"
    },
    {
      "inputs": [
        {
          "internalType": "bytes32",
          "name": "role",
          "type": "bytes32"
        },
        {
          "internalType": "address",
          "name": "callerConfirmation",
          "type": "address"
        }
      ],
      "name": "renounceRole",
      "outputs": [],
      "stateMutability": "nonpayable",
      "type": "function"
    },
    {
      "inputs": [
        {
          "internalType": "bytes32",
          "name": "role",
          "type": "bytes32"
        },
        {
          "internalType": "address",
          "name": "account",
          "type": "address"
        }
      ],
      "name": "revokeRole",
      "outputs": [],
      "stateMutability": "nonpayable",
      "type": "function"
    },
    {
      "inputs": [
        {
          "internalType": "address",
          "name": "from",
          "type": "address"
        },
        {
          "internalType": "address",
          "name": "to",
          "type": "address"
        },
        {
          "internalType": "uint256",
          "name": "tokenId",
          "type": "uint256"
        }
      ],
      "name": "safeTransferFrom",
      "outputs": [],
      "stateMutability": "nonpayable",
      "type": "function"
    },
    {
      "inputs": [
        {
          "internalType": "address",
          "name": "from",
          "type": "address"
        },
        {
          "internalType": "address",
          "name": "to",
          "type": "address"
        },
        {
          "internalType": "uint256",
          "name": "tokenId",
          "type": "uint256"
        },
        {
          "internalType": "bytes",
          "name": "data",
          "type": "bytes"
        }
      ],
      "name": "safeTransferFrom",
      "outputs": [],
      "stateMutability": "nonpayable",
      "type": "function"
    },
    {
      "inputs": [
        {
          "internalType": "address",
          "name": "operator",
          "type": "address"
        },
        {
          "internalType": "bool",
          "name": "approved",
          "type": "bool"
        }
      ],
      "name": "setApprovalForAll",
      "outputs": [],
      "stateMutability": "nonpayable",
      "type": "function"
    },
    {
      "inputs": [
        {
          "internalType": "address",
          "name": "updater",
          "type": "address"
        },
        {
          "internalType": "bool",
          "name": "enabled",
          "type": "bool"
        }
      ],
      "name": "setScoreUpdater",
      "outputs": [],
      "stateMutability": "nonpayable",
      "type": "function"
    },
    {
      "inputs": [
        {
          "internalType": "bytes4",
          "name": "interfaceId",
          "type": "bytes4"
        }
      ],
      "name": "supportsInterface",
      "outputs": [
        {
          "internalType": "bool",
          "name": "",
          "type": "bool"
        }
      ],
      "stateMutability": "view",
      "type": "function"
    },
    {
      "inputs": [],
      "name": "symbol",
      "outputs": [
        {
          "internalType": "string",
          "name": "",
          "type": "string"
        }
      ],
      "stateMutability": "view",
      "type": "function"
    },
    {
      "inputs": [
        {
          "internalType": "uint256",
          "name": "tokenId",
          "type": "uint256"
        }
      ],
      "name": "tokenURI",
      "outputs": [
        {
          "internalType": "string",
          "name": "",
          "type": "string"
        }
      ],
      "stateMutability": "view",
      "type": "function"
    },
    {
      "inputs": [
        {
          "internalType": "address",
          "name": "from",
          "type": "address"
        },
        {
          "internalType": "address",
          "name": "to",
          "type": "address"
        },
        {
          "internalType": "uint256",
          "name": "tokenId",
          "type": "uint256"
        }
      ],
      "name": "transferFrom",
      "outputs": [],
      "stateMutability": "nonpayable",
      "type": "function"
    }
  ],
  "bytecode": "0x608060405260016009553480156200001657600080fd5b5060405162001d4838038062001d48833981016040819052620000399162000179565b6040518060400160405280601981526020017f4e6575726f43726564204372656469742050617373706f7274000000000000008152506040518060400160405280600481526020016304e4343560e41b81525081600090816200009d919062000252565b506001620000ac828262000252565b50620000be91506000905082620000c6565b50506200031e565b60008281526006602090815260408083206001600160a01b038516845290915281205460ff166200016f5760008381526006602090815260408083206001600160a01b03861684529091529020805460ff19166001179055620001263390565b6001600160a01b0316826001600160a01b0316847f2f8788117e7eff1d82e926ec794901d17c78024a50270940304540a733656f0d60405160405180910390a450600162000173565b5060005b92915050565b6000602082840312156200018c57600080fd5b81516001600160a01b0381168114620001a457600080fd5b9392505050565b634e487b7160e01b600052604160045260246000fd5b600181811c90821680620001d657607f821691505b602082108103620001f757634e487b7160e01b600052602260045260246000fd5b50919050565b601f8211156200024d576000816000526020600020601f850160051c81016020861015620002285750805b601f850160051c820191505b81811015620002495782815560010162000234565b5050505b505050565b81516001600160401b038111156200026e576200026e620001ab565b62000286816200027f8454620001c1565b84620001fd565b602080601f831160018114620002be5760008415620002a55750858301515b600019600386901b1c1916600185901b17855562000249565b600085815260208120601f198616915b82811015620002ef57888601518255948401946001909101908401620002ce565b50858210156200030e5787850151600019600388901b60f8161c191681555b5050505050600190811b01905550565b611a1a806200032e6000396000f3fe608060405234801561001057600080fd5b506004361061018e5760003560e01c806395d89b41116100de578063d47875d011610097578063e985e9c511610071578063e985e9c51461037d578063ec07225714610390578063f5232a4c146103a3578063f5b7c71d146103cc57600080fd5b8063d47875d014610335578063d547741f14610355578063e3b8d5681461036857600080fd5b806395d89b41146102d9578063a217fddf146102e1578063a22cb465146102e9578063b4f5b215146102fc578063b88d4fde1461030f578063c87b56dd1461032257600080fd5b8063248a9ca31161014b57806342842e0e1161012557806342842e0e1461028d5780636352211e146102a057806370a08231146102b357806391d14854146102c657600080fd5b8063248a9ca3146102365780632f2ff15d1461026757806336568abe1461027a57600080fd5b806301ffc9a71461019357806306fdde03146101bb578063081812fc146101d0578063095ea7b3146101fb57806317131eee1461021057806323b872dd14610223575b600080fd5b6101a66101a1366004611598565b6103df565b60405190151581526020015b60405180910390f35b6101c36103f0565b6040516101b29190611605565b6101e36101de366004611618565b610482565b6040516001600160a01b0390911681526020016101b2565b61020e61020936600461164d565b6104ab565b005b61020e61021e366004611677565b6104ba565b61020e610231366004611692565b61052f565b610259610244366004611618565b60009081526006602052604090206001015490565b6040519081526020016101b2565b61020e6102753660046116ce565b6105ba565b61020e6102883660046116ce565b6105df565b61020e61029b366004611692565b610612565b6101e36102ae366004611618565b61062d565b6102596102c1366004611677565b610638565b6101a66102d43660046116ce565b610680565b6101c36106ab565b610259600081565b61020e6102f73660046116fa565b6106ba565b61020e61030a366004611736565b6106c5565b61020e61031d3660046117a2565b61091c565b6101c3610330366004611618565b610934565b610348610343366004611677565b6109a9565b6040516101b2919061187e565b61020e6103633660046116ce565b610a7e565b6102596000805160206119c583398151915281565b6101a661038b3660046118b0565b610aa3565b61020e61039e3660046116fa565b610ad1565b6102596103b1366004611677565b6001600160a01b031660009081526007602052604090205490565b6103486103da366004611618565b610b12565b60006103ea82610bd4565b92915050565b6060600080546103ff906118da565b80601f016020809104026020016040519081016040528092919081815260200182805461042b906118da565b80156104785780601f1061044d57610100808354040283529160200191610478565b820191906000526020600020905b81548152906001019060200180831161045b57829003601f168201915b5050505050905090565b600061048d82610bf9565b506000828152600460205260409020546001600160a01b03166103ea565b6104b6828233610c32565b5050565b60006104c581610c3f565b6001600160a01b038216600090815260076020526040812054908190036105215760405162461bcd60e51b815260206004820152600b60248201526a139bc81c185cdcdc1bdc9d60aa1b60448201526064015b60405180910390fd5b61052a81610c4c565b505050565b6001600160a01b03821661055957604051633250574960e11b815260006004820152602401610518565b6000610566838333610c87565b9050836001600160a01b0316816001600160a01b0316146105b4576040516364283d7b60e01b81526001600160a01b0380861660048301526024820184905282166044820152606401610518565b50505050565b6000828152600660205260409020600101546105d581610c3f565b6105b48383610d63565b6001600160a01b03811633146106085760405163334bd91960e11b815260040160405180910390fd5b61052a8282610df7565b61052a8383836040518060200160405280600081525061091c565b60006103ea82610bf9565b60006001600160a01b038216610664576040516322718ad960e21b815260006004820152602401610518565b506001600160a01b031660009081526003602052604090205490565b60009182526006602090815260408084206001600160a01b0393909316845291905290205460ff1690565b6060600180546103ff906118da565b6104b6338383610e64565b6000805160206119c58339815191526106dd81610c3f565b6001600160a01b0384166107225760405162461bcd60e51b815260206004820152600c60248201526b24b73b30b634b2103ab9b2b960a11b6044820152606401610518565b6103e88361ffff1611156107695760405162461bcd60e51b815260206004820152600e60248201526d0a6c6dee4ca40e8dede40d0d2ced60931b6044820152606401610518565b60038260ff1611156107b15760405162461bcd60e51b8152602060048201526011602482015270125b9d985b1a59081c9a5cdac818985b99607a1b6044820152606401610518565b6001600160a01b0384166000908152600760205260408120549081900361084457600980549060006107e283611914565b909155506001600160a01b0386166000908152600760205260409020819055905061080d8582610f03565b60405181906001600160a01b038716907f2cf689e09cb05e7e71be603090df76ef66fdfd5f723f4086dd4b3d6eee5c43d990600090a35b604080516060808201835261ffff87811680845260ff888116602080870182815267ffffffffffffffff428181168a8c0181815260008e8152600887528d90209b518c54955191519094166301000000026affffffffffffffff0000001991909816620100000262ffffff19909516939099169290921792909217969096169390931790965586519283529482019490945293840152909183916001600160a01b038916917f89314cf3057a7390dc4b6d072edd668951e0b0abdccccef5319c10e1019f1217910160405180910390a3505050505050565b61092784848461052f565b6105b43385858585610f1d565b606061093f82610bf9565b50600061095760408051602081019091526000815290565b9050600081511161097757604051806020016040528060008152506109a2565b8061098184611048565b60405160200161099292919061193b565b6040516020818303038152906040525b9392505050565b60408051606081018252600080825260208083018290528284018290526001600160a01b038516825260079052918220549091819003610a075750506040805160608101825260008082526020820181905291810191909152919050565b600090815260086020908152604091829020825160608082018552915461ffff808216835260ff620100008304811684870190815267ffffffffffffffff63010000009094048416858901908152885196870189529451909216855290511693830193909352519091169181019190915292915050565b600082815260066020526040902060010154610a9981610c3f565b6105b48383610df7565b6001600160a01b03918216600090815260056020908152604080832093909416825291909152205460ff1690565b6000610adc81610c3f565b8115610afa576105b46000805160206119c583398151915284610d63565b6105b46000805160206119c583398151915284610df7565b60408051606081018252600080825260208083018290528284018290528482526002905291909120546001600160a01b0316610b845760405162461bcd60e51b81526020600482015260116024820152702737b732bc34b9ba32b73a103a37b5b2b760791b6044820152606401610518565b506000908152600860209081526040918290208251606081018452905461ffff8116825262010000810460ff1692820192909252630100000090910467ffffffffffffffff169181019190915290565b60006001600160e01b03198216637965db0b60e01b14806103ea57506103ea826110db565b6000818152600260205260408120546001600160a01b0316806103ea57604051637e27328960e01b815260048101849052602401610518565b61052a838383600161112b565b610c498133611231565b50565b6000610c5b6000836000610c87565b90506001600160a01b0381166104b657604051637e27328960e01b815260048101839052602401610518565b6000828152600260205260408120546001600160a01b03168015801590610cb657506001600160a01b03851615155b15610d035760405162461bcd60e51b815260206004820152601b60248201527f536f756c626f756e643a206e6f6e2d7472616e7366657261626c6500000000006044820152606401610518565b6000610d1086868661126a565b90506001600160a01b038616610d5a576001600160a01b038116600090815260076020526040902054859003610d5a576001600160a01b0381166000908152600760205260408120555b95945050505050565b6000610d6f8383610680565b610def5760008381526006602090815260408083206001600160a01b03861684529091529020805460ff19166001179055610da73390565b6001600160a01b0316826001600160a01b0316847f2f8788117e7eff1d82e926ec794901d17c78024a50270940304540a733656f0d60405160405180910390a45060016103ea565b5060006103ea565b6000610e038383610680565b15610def5760008381526006602090815260408083206001600160a01b0386168085529252808320805460ff1916905551339286917ff6391f5c32d9c69d2a47ea670b442974b53935d1edc7fd64eb21e047a839171b9190a45060016103ea565b6001600160a01b038216610e9657604051630b61174360e31b81526001600160a01b0383166004820152602401610518565b6001600160a01b03838116600081815260056020908152604080832094871680845294825291829020805460ff191686151590811790915591519182527f17307eab39ab6107e8899845ad3d59bd9653f200f220920489ca2b5937696c31910160405180910390a3505050565b6104b6828260405180602001604052806000815250611363565b6001600160a01b0383163b1561104157604051630a85bd0160e11b81526001600160a01b0384169063150b7a0290610f5f90889088908790879060040161196a565b6020604051808303816000875af1925050508015610f9a575060408051601f3d908101601f19168201909252610f97918101906119a7565b60015b611003573d808015610fc8576040519150601f19603f3d011682016040523d82523d6000602084013e610fcd565b606091505b508051600003610ffb57604051633250574960e11b81526001600160a01b0385166004820152602401610518565b805160208201fd5b6001600160e01b03198116630a85bd0160e11b1461103f57604051633250574960e11b81526001600160a01b0385166004820152602401610518565b505b5050505050565b606060006110558361137b565b600101905060008167ffffffffffffffff8111156110755761107561178c565b6040519080825280601f01601f19166020018201604052801561109f576020820181803683370190505b5090508181016020015b600019016f181899199a1a9b1b9c1cb0b131b232b360811b600a86061a8153600a85049450846110a957509392505050565b60006001600160e01b031982166380ac58cd60e01b148061110c57506001600160e01b03198216635b5e139f60e01b145b806103ea57506301ffc9a760e01b6001600160e01b03198316146103ea565b808061113f57506001600160a01b03821615155b1561120157600061114f84610bf9565b90506001600160a01b0383161580159061117b5750826001600160a01b0316816001600160a01b031614155b801561118e575061118c8184610aa3565b155b156111b75760405163a9fbf51f60e01b81526001600160a01b0384166004820152602401610518565b81156111ff5783856001600160a01b0316826001600160a01b03167f8c5be1e5ebec7d5bd14f71427d1e84f3dd0314c0f7b2291e5b200ac8c7c3b92560405160405180910390a45b505b5050600090815260046020526040902080546001600160a01b0319166001600160a01b0392909216919091179055565b61123b8282610680565b6104b65760405163e2517d3f60e01b81526001600160a01b038216600482015260248101839052604401610518565b6000828152600260205260408120546001600160a01b039081169083161561129757611297818486611453565b6001600160a01b038116156112d5576112b460008560008061112b565b6001600160a01b038116600090815260036020526040902080546000190190555b6001600160a01b03851615611304576001600160a01b0385166000908152600360205260409020805460010190555b60008481526002602052604080822080546001600160a01b0319166001600160a01b0389811691821790925591518793918516917fddf252ad1be2c89b69c2b068fc378daa952ba7f163c4a11628f55a4df523b3ef91a4949350505050565b61136d83836114b7565b61052a336000858585610f1d565b60008072184f03e93ff9f4daa797ed6e38ed64bf6a1f0160401b83106113ba5772184f03e93ff9f4daa797ed6e38ed64bf6a1f0160401b830492506040015b6d04ee2d6d415b85acef810000000083106113e6576d04ee2d6d415b85acef8100000000830492506020015b662386f26fc10000831061140457662386f26fc10000830492506010015b6305f5e100831061141c576305f5e100830492506008015b612710831061143057612710830492506004015b60648310611442576064830492506002015b600a83106103ea5760010192915050565b61145e83838361151c565b61052a576001600160a01b03831661148c57604051637e27328960e01b815260048101829052602401610518565b60405163177e802f60e01b81526001600160a01b038316600482015260248101829052604401610518565b6001600160a01b0382166114e157604051633250574960e11b815260006004820152602401610518565b60006114ef83836000610c87565b90506001600160a01b0381161561052a576040516339e3563760e11b815260006004820152602401610518565b60006001600160a01b0383161580159061157a5750826001600160a01b0316846001600160a01b0316148061155657506115568484610aa3565b8061157a57506000828152600460205260409020546001600160a01b038481169116145b949350505050565b6001600160e01b031981168114610c4957600080fd5b6000602082840312156115aa57600080fd5b81356109a281611582565b60005b838110156115d05781810151838201526020016115b8565b50506000910152565b600081518084526115f18160208601602086016115b5565b601f01601f19169290920160200192915050565b6020815260006109a260208301846115d9565b60006020828403121561162a57600080fd5b5035919050565b80356001600160a01b038116811461164857600080fd5b919050565b6000806040838503121561166057600080fd5b61166983611631565b946020939093013593505050565b60006020828403121561168957600080fd5b6109a282611631565b6000806000606084860312156116a757600080fd5b6116b084611631565b92506116be60208501611631565b9150604084013590509250925092565b600080604083850312156116e157600080fd5b823591506116f160208401611631565b90509250929050565b6000806040838503121561170d57600080fd5b61171683611631565b91506020830135801515811461172b57600080fd5b809150509250929050565b60008060006060848603121561174b57600080fd5b61175484611631565b9250602084013561ffff8116811461176b57600080fd5b9150604084013560ff8116811461178157600080fd5b809150509250925092565b634e487b7160e01b600052604160045260246000fd5b600080600080608085870312156117b857600080fd5b6117c185611631565b93506117cf60208601611631565b925060408501359150606085013567ffffffffffffffff808211156117f357600080fd5b818701915087601f83011261180757600080fd5b8135818111156118195761181961178c565b604051601f8201601f19908116603f011681019083821181831017156118415761184161178c565b816040528281528a602084870101111561185a57600080fd5b82602086016020830137600060208483010152809550505050505092959194509250565b815161ffff16815260208083015160ff169082015260408083015167ffffffffffffffff1690820152606081016103ea565b600080604083850312156118c357600080fd5b6118cc83611631565b91506116f160208401611631565b600181811c908216806118ee57607f821691505b60208210810361190e57634e487b7160e01b600052602260045260246000fd5b50919050565b60006001820161193457634e487b7160e01b600052601160045260246000fd5b5060010190565b6000835161194d8184602088016115b5565b8351908301906119618183602088016115b5565b01949350505050565b6001600160a01b038581168252841660208201526040810183905260806060820181905260009061199d908301846115d9565b9695505050505050565b6000602082840312156119b957600080fd5b81516109a28161158256fe104b8b49096a312bfb9e629c0505c438472f9b8bf7a02b11b41f271c208739c7a26469706673582212207298b91ca7c0ae1da0bfadf115ba5fe5524736a24122960daf82191246a3c2d764736f6c63430008160033",
  "linkReferences": {},
  "deployedLinkReferences": {}
}